{
    "contractName": "ERS",
    "abi": [
        {
            "inputs": [
                {
                    "internalType": "string",
                    "name": "uniqueId",
                    "type": "string"
                },
                {
                    "internalType": "string",
                    "name": "answer_sheet_hash",
                    "type": "string"
                },
                {
                    "internalType": "address",
                    "name": "public_addr_reviewer",
                    "type": "address"
                },
                {
                    "internalType": "uint256[]",
                    "name": "marks",
                    "type": "uint256[]"
                }
            ],
            "name": "addMarks",
            "outputs": [],
            "stateMutability": "nonpayable",
            "type": "function"
        },
        {
            "inputs": [
                {
                    "internalType": "string",
                    "name": "",
                    "type": "string"
                }
            ],
            "name": "answer_sheets",
            "outputs": [
                {
                    "internalType": "string",
                    "name": "exam_id",
                    "type": "string"
                },
                {
                    "internalType": "string",
                    "name": "student_id_hash",
                    "type": "string"
                },
                {
                    "internalType": "string",
                    "name": "answer_sheet_hash",
                    "type": "string"
                },
                {
                    "internalType": "address",
                    "name": "public_addr_uploader",
                    "type": "address"
                },
                {
                    "internalType": "address",
                    "name": "public_addr_reviewer",
                    "type": "address"
                }
            ],
            "stateMutability": "view",
            "type": "function"
        },
        {
            "inputs": [
                {
                    "internalType": "string",
                    "name": "exam_id",
                    "type": "string"
                },
                {
                    "internalType": "string",
                    "name": "student_id_hash",
                    "type": "string"
                },
                {
                    "internalType": "string",
                    "name": "answer_sheet_hash",
                    "type": "string"
                },
                {
                    "internalType": "address",
                    "name": "public_addr_uploader",
                    "type": "address"
                },
                {
                    "internalType": "address",
                    "name": "public_addr_reviewer",
                    "type": "address"
                }
            ],
            "name": "createAnswerSheet",
            "outputs": [],
            "stateMutability": "nonpayable",
            "type": "function"
        },
        {
            "inputs": [
                {
                    "internalType": "address",
                    "name": "public_addr_reviewer",
                    "type": "address"
                }
            ],
            "name": "getYetToReview",
            "outputs": [
                {
                    "internalType": "string[]",
                    "name": "",
                    "type": "string[]"
                }
            ],
            "stateMutability": "view",
            "type": "function"
        },
        {
            "inputs": [
                {
                    "internalType": "string",
                    "name": "answer_sheet_hash",
                    "type": "string"
                }
            ],
            "name": "viewAnswerSheetReviewer",
            "outputs": [
                {
                    "internalType": "address",
                    "name": "",
                    "type": "address"
                }
            ],
            "stateMutability": "view",
            "type": "function"
        },
        {
            "inputs": [],
            "name": "viewAnswerSheets",
            "outputs": [
                {
                    "internalType": "string[]",
                    "name": "",
                    "type": "string[]"
                }
            ],
            "stateMutability": "view",
            "type": "function"
        },
        {
            "inputs": [
                {
                    "internalType": "string",
                    "name": "answer_sheet_hash",
                    "type": "string"
                }
            ],
            "name": "viewFinalMarks",
            "outputs": [
                {
                    "internalType": "uint256[]",
                    "name": "",
                    "type": "uint256[]"
                }
            ],
            "stateMutability": "view",
            "type": "function"
        },
        {
            "inputs": [
                {
                    "internalType": "string",
                    "name": "answer_sheet_hash",
                    "type": "string"
                }
            ],
            "name": "viewReviews",
            "outputs": [
                {
                    "internalType": "string[]",
                    "name": "",
                    "type": "string[]"
                }
            ],
            "stateMutability": "view",
            "type": "function"
        }
    ],
    "bytecode": "608060405234801561001057600080fd5b506110c7806100206000396000f3fe608060405234801561001057600080fd5b50600436106100885760003560e01c80638e0d89891161005b5780638e0d89891461011a578063b6e323c51461012d578063e0a133ed1461014d578063f2e23e681461015557600080fd5b806305dd4a731461008d5780630b052954146100b65780633053b6eb146100e15780634f30d30d14610105575b600080fd5b6100a061009b366004610b27565b610168565b6040516100ad9190610ba5565b60405180910390f35b6100c96100c4366004610cbe565b61030c565b6040516001600160a01b0390911681526020016100ad565b6100f46100ef366004610cbe565b610340565b6040516100ad959493929190610cfb565b610118610113366004610d5a565b61051e565b005b6100a0610128366004610cbe565b61068a565b61014061013b366004610cbe565b610784565b6040516100ad9190610e56565b6100a0610881565b610118610163366004610e9a565b61095a565b60008054606091808267ffffffffffffffff81111561018957610189610c07565b6040519080825280602002602001820160405280156101bc57816020015b60608152602001906001900390816101a75790505b50905060005b8381101561030357856001600160a01b03166001600083815481106101e9576101e9610f44565b906000526020600020016040516102009190610f94565b908152604051908190036020019020600401546001600160a01b0316036102f1576000818154811061023457610234610f44565b90600052602060002001805461024990610f5a565b80601f016020809104026020016040519081016040528092919081815260200182805461027590610f5a565b80156102c25780601f10610297576101008083540402835291602001916102c2565b820191906000526020600020905b8154815290600101906020018083116102a557829003601f168201915b50505050508284806102d390611045565b9550815181106102e5576102e5610f44565b60200260200101819052505b806102fb81611045565b9150506101c2565b50949350505050565b600060018260405161031e919061105e565b908152604051908190036020019020600401546001600160a01b031692915050565b805160208183018101805160018252928201919093012091528054819061036690610f5a565b80601f016020809104026020016040519081016040528092919081815260200182805461039290610f5a565b80156103df5780601f106103b4576101008083540402835291602001916103df565b820191906000526020600020905b8154815290600101906020018083116103c257829003601f168201915b5050505050908060010180546103f490610f5a565b80601f016020809104026020016040519081016040528092919081815260200182805461042090610f5a565b801561046d5780601f106104425761010080835404028352916020019161046d565b820191906000526020600020905b81548152906001019060200180831161045057829003601f168201915b50505050509080600201805461048290610f5a565b80601f01602080910402602001604051908101604052809291908181526020018280546104ae90610f5a565b80156104fb5780601f106104d0576101008083540402835291602001916104fb565b820191906000526020600020905b8154815290600101906020018083116104de57829003601f168201915b50505050600383015460049093015491926001600160a01b039081169216905085565b816001600160a01b0316600184604051610538919061105e565b908152604051908190036020019020600401546001600160a01b0316146105a55760405162461bcd60e51b815260206004820181905260248201527f526576696577206e6f7420616c6c6f77656420666f7220746869732075736572604482015260640160405180910390fd5b6001836040516105b5919061105e565b90815260405160209181900382019020600501805460018101825560009182529082902086516105ed93919092019190870190610a38565b50806001846040516105ff919061105e565b90815260200160405180910390206006018560405161061e919061105e565b9081526020016040518091039020908051906020019061063f929190610abc565b506000600184604051610652919061105e565b90815260405190819003602001902060040180546001600160a01b03929092166001600160a01b031990921691909117905550505050565b606060018260405161069c919061105e565b9081526020016040518091039020600501805480602002602001604051908101604052809291908181526020016000905b828210156107795783829060005260206000200180546106ec90610f5a565b80601f016020809104026020016040519081016040528092919081815260200182805461071890610f5a565b80156107655780601f1061073a57610100808354040283529160200191610765565b820191906000526020600020905b81548152906001019060200180831161074857829003601f168201915b5050505050815260200190600101906106cd565b505050509050919050565b6060600060018084604051610799919061105e565b908152604051908190036020019020600501546107b6919061107a565b90506001836040516107c8919061105e565b90815260200160405180910390206006016001846040516107e9919061105e565b9081526020016040518091039020600501828154811061080b5761080b610f44565b906000526020600020016040516108229190610f94565b908152604080519182900360209081018320805480830285018301909352828452919083018282801561087457602002820191906000526020600020905b815481526020019060010190808311610860575b5050505050915050919050565b60606000805480602002602001604051908101604052809291908181526020016000905b828210156109515783829060005260206000200180546108c490610f5a565b80601f01602080910402602001604051908101604052809291908181526020018280546108f090610f5a565b801561093d5780601f106109125761010080835404028352916020019161093d565b820191906000526020600020905b81548152906001019060200180831161092057829003601f168201915b5050505050815260200190600101906108a5565b50505050905090565b60008054600181018255908052835161099a917f290decd9548b62a8d60345a988386fc84ba6bc95484008f6362f93160ef3e56301906020860190610a38565b5060006001846040516109ad919061105e565b90815260200160405180910390209050858160000190805190602001906109d5929190610a38565b5084516109eb9060018301906020880190610a38565b508351610a019060028301906020870190610a38565b506003810180546001600160a01b039485166001600160a01b03199182161790915560049091018054929093169116179055505050565b828054610a4490610f5a565b90600052602060002090601f016020900481019282610a665760008555610aac565b82601f10610a7f57805160ff1916838001178555610aac565b82800160010185558215610aac579182015b82811115610aac578251825591602001919060010190610a91565b50610ab8929150610af6565b5090565b828054828255906000526020600020908101928215610aac5791602002820182811115610aac578251825591602001919060010190610a91565b5b80821115610ab85760008155600101610af7565b80356001600160a01b0381168114610b2257600080fd5b919050565b600060208284031215610b3957600080fd5b610b4282610b0b565b9392505050565b60005b83811015610b64578181015183820152602001610b4c565b83811115610b73576000848401525b50505050565b60008151808452610b91816020860160208601610b49565b601f01601f19169290920160200192915050565b6000602080830181845280855180835260408601915060408160051b870101925083870160005b82811015610bfa57603f19888603018452610be8858351610b79565b94509285019290850190600101610bcc565b5092979650505050505050565b634e487b7160e01b600052604160045260246000fd5b604051601f8201601f1916810167ffffffffffffffff81118282101715610c4657610c46610c07565b604052919050565b600082601f830112610c5f57600080fd5b813567ffffffffffffffff811115610c7957610c79610c07565b610c8c601f8201601f1916602001610c1d565b818152846020838601011115610ca157600080fd5b816020850160208301376000918101602001919091529392505050565b600060208284031215610cd057600080fd5b813567ffffffffffffffff811115610ce757600080fd5b610cf384828501610c4e565b949350505050565b60a081526000610d0e60a0830188610b79565b8281036020840152610d208188610b79565b90508281036040840152610d348187610b79565b6001600160a01b0395861660608501529390941660809092019190915250949350505050565b60008060008060808587031215610d7057600080fd5b843567ffffffffffffffff80821115610d8857600080fd5b610d9488838901610c4e565b9550602091508187013581811115610dab57600080fd5b610db789828a01610c4e565b955050610dc660408801610b0b565b9350606087013581811115610dda57600080fd5b8701601f81018913610deb57600080fd5b803582811115610dfd57610dfd610c07565b8060051b9250610e0e848401610c1d565b818152928201840192848101908b851115610e2857600080fd5b928501925b84841015610e4657833582529285019290850190610e2d565b989b979a50959850505050505050565b6020808252825182820181905260009190848201906040850190845b81811015610e8e57835183529284019291840191600101610e72565b50909695505050505050565b600080600080600060a08688031215610eb257600080fd5b853567ffffffffffffffff80821115610eca57600080fd5b610ed689838a01610c4e565b96506020880135915080821115610eec57600080fd5b610ef889838a01610c4e565b95506040880135915080821115610f0e57600080fd5b50610f1b88828901610c4e565b935050610f2a60608701610b0b565b9150610f3860808701610b0b565b90509295509295909350565b634e487b7160e01b600052603260045260246000fd5b600181811c90821680610f6e57607f821691505b602082108103610f8e57634e487b7160e01b600052602260045260246000fd5b50919050565b600080835481600182811c915080831680610fb057607f831692505b60208084108203610fcf57634e487b7160e01b86526022600452602486fd5b818015610fe35760018114610ff457611021565b60ff19861689528489019650611021565b60008a81526020902060005b868110156110195781548b820152908501908301611000565b505084890196505b509498975050505050505050565b634e487b7160e01b600052601160045260246000fd5b6000600182016110575761105761102f565b5060010190565b60008251611070818460208701610b49565b9190910192915050565b60008282101561108c5761108c61102f565b50039056fea264697066735822122067a8a0f7dd16a370cefcacc210cddc63ee4d8ca388d5af74433ee593ae88a3a964736f6c634300080d0033",
    "sourcePath": "/home/galloway/ers/contracts/ERS.sol",
    "compiler": {
        "name": "solc",
        "version": "0.8.13+commit.abaa5c0e"
    },
    "functionHashes": {
        "addMarks(string,string,address,uint256[])": "4f30d30d",
        "answer_sheets(string)": "3053b6eb",
        "createAnswerSheet(string,string,string,address,address)": "f2e23e68",
        "getYetToReview(address)": "05dd4a73",
        "viewAnswerSheetReviewer(string)": "0b052954",
        "viewAnswerSheets()": "e0a133ed",
        "viewFinalMarks(string)": "b6e323c5",
        "viewReviews(string)": "8e0d8989"
    },
    "gasEstimates": {
        "creation": {
            "codeDepositCost": "859000",
            "executionCost": "896",
            "totalCost": "859896"
        },
        "external": {
            "addMarks(string,string,address,uint256[])": "infinite",
            "answer_sheets(string)": "infinite",
            "createAnswerSheet(string,string,string,address,address)": "infinite",
            "getYetToReview(address)": "infinite",
            "viewAnswerSheetReviewer(string)": "infinite",
            "viewAnswerSheets()": "infinite",
            "viewFinalMarks(string)": "infinite",
            "viewReviews(string)": "infinite"
        }
    }
}